:100000000C9456400C9468400C9468400C946840E2
:100010000C9468400C9468400C9468400C946840C0
:100020000C9468400C9468400C9468400C946840B0
:100030000C9468400C9468400C9468400C946840A0
:100040000C9468400C9468400C9468400C94684090
:100050000C9468400C9468400C9468400C94684080
:100060000C9468400C9468400C9468400C94684070
:100070000C9468400C9468400C9468400C94684060
:100080000C9468400C9468400C9468400C94684050
:100090000C9468400C9468400C9468400C94684040
:1000A0000C9468400C9468400C94684011241FBE66
:1000B000CFEFCDBFDFE2DEBF21E2A0E0B0E201C0C2
:1000C0001D92A131B207E1F70E944C420C946546A3
:1000D0000C94004088ED84BF81E080937900FFCFCD
:1000E00007C00197EFE3FFE13197F1F700C000008F
:1000F0000097B9F780E0089580910A2081110DC022
:100100008091E4078D7F8093E40710920220109283
:10011000032010920420109205208091C10987FDD0
:1001200034C08091022090910320A0910420B091CE
:1001300005200196A11DB11D8093022090930320FC
:10014000A0930420B093052020910A20222361F17E
:10015000813A9648A140B10500F3215020930A202E
:100160008091E407222369F120FD2BC082608093F7
:10017000E4071092022010920320109204201092A3
:1001800005208091C10987FFCCCF80E88093C10909
:100190008091C00990910A20911105C09091E407C7
:1001A00092609093E407089581309940AD43B10582
:1001B00008F4B3CFE0910020F091012009950E944E
:1001C0006A408D7F8093E407D4CF9091C10995FF59
:1001D000FCCF90E29093C1098093C00908950E94DA
:1001E0007C409091C10995FFFCCF90E29093C109AA
:1001F0008093C009813624F480330CF08053089535
:1002000087550895CF930E94EF40C82F0E94EF407A
:1002100090E1C99F800D1124CF910895282F259535
:10022000259525952595205D8F708A30A4F0895AF3
:100230009091C10995FFFCCF90E29093C109209362
:10024000C0099091C10995FFFCCF90E29093C1093C
:100250008093C0090895805DEBCF2FEF260F6623B2
:1002600069F0FC0130E291918091C10985FFFCCFDA
:100270003093C1099093C0092150A8F7089580E0F8
:1002800090E0DC010AC00196A11DB11D893428EE61
:10029000920721E0A207B105B1F02091C10925FF25
:1002A000F2CF0AC00196A11DB11D893428EE920734
:1002B00021E0A207B10539F02091C10926FFF2CF54
:1002C00080E68093C1090895CF93882329F0C82F31
:1002D0000E947C40C150E1F7CF910895CF93C82F81
:1002E0000E947C40803249F080910F218F5F809383
:1002F0000F21853009F1CF9108958091C10985FFC3
:10030000FCCF80E28093C10984E18093C009809191
:10031000C10985FFFCCF80E28093C109C093C00969
:100320008091C10985FFFCCF80E28093C10980E103
:100330008093C009CF9108950E9445420E947C405D
:10034000803241F080910F218F5F80930F218530A3
:10035000B1F008958091C10985FFFCCF80E28093C0
:10036000C10984E18093C0098091C10985FFFCCF58
:1003700080E28093C10980E18093C00908950E94C2
:100380004542AAECB1E08C93FB0184911C92089544
:100390008091CF0187FDFCCF1092CA0108950F9381
:1003A0001092CD0140E050E0BA0186E2FF93EF9356
:1003B0000F932F932BB76BBFFA018093CA010DE9FE
:1003C00000933400E8952BBF2F910F91EF91FF918F
:1003D0000F910895FF93EF931F920F922F932BB7D6
:1003E0002F9322272BBFFC01062E142E23E22093ED
:1003F000CA012DE920933400E8952F912BBF2F914E
:100400000F901F90EF91FF910895EF92FF920F933D
:100410001F93CF93DF93EC017B011092CD0160FF1E
:1004200003C08FEFE81AF80AE114F10479F000E054
:1004300010E068812296FE0131974081C8010E9438
:10044000EA410E5F1F4F0E151F0598F3DF91CF9104
:100450001F910F91FF90EF9008950F931092CD018F
:1004600035E2FF93EF930F932F932BB78BBFFB01D5
:100470003093CA010DE900933400E8952BBF2F910A
:100480000F91EF91FF910F910895E0910020F0916D
:10049000012009950E946A408DB7811101C08EB775
:1004A000309178008FE78093780088ED84BF91E0E9
:1004B0009093800084BF90938100932F9F7309F4E1
:1004C0003FC1387084BF80EC8093A20080914006C9
:1004D00081608093400610925006809144068E7F82
:1004E000809344068091400682608093400610927B
:1004F0005106809144068D7F80934406809140068A
:1005000080618093400610925406809144068F7E4D
:10051000809344068091400680628093400610924A
:100520005506809144068F7D809344068091600635
:1005300080618093600610927406809164068F7EBD
:1005400080936406809160068062809360061092BA
:100550007506809164068F7D8093640680916006A5
:1005600080648093600610927606809164068F7B8B
:100570008093640680916006806880936006109284
:100580007706809164068F7780936406809150008F
:100590008660809350008091420080FDADC08091C4
:1005A00040008770813009F49EC28FEF9FE702C040
:1005B000019721F02091510021FFFACF8091510045
:1005C00081FD8CC23111A8C2E0E0F0E0E49110920C
:1005D0006E0688E180937206809164068460809341
:1005E0006406809160068B7F80936006109273068C
:1005F00080916406886080936406809160068860BC
:100600008093600687E88093C60980EE8093C709CF
:100610001092C20983E08093C4091092C5098CE14D
:100620008093C30978941092F1078091E00782606B
:100630008093E00710920F2186E080930A2080913A
:10064000E40782608093E407C0E080E2F82E94E142
:10065000B92E20E1E22E30E8232E312C42E5842E03
:1006600059E4952E63E5A62E0E947C408033B9F1B3
:10067000CC2309F460C0813309F46CC0803409F4E0
:10068000C8C0813409F4CCC0823409F45BC085341D
:1006900009F4B2C0982F9D7F903509F1813509F496
:1006A0003EC0853509F4CFC0863509F4DCC08436F8
:1006B00009F4E5C0843709F48BC1853709F4D2C148
:1006C000863709F4BBC080910F218F5F80930F2183
:1006D000853089F1C1E00E947C40803349F60E9458
:1006E0009E41C1E0F8CF4150510909F00BC2109270
:1006F000560081E0809360004FEF5FEF8FEF03C003
:10070000815009F444C29091510092FFF9CF809139
:10071000510082FF57CF82E08093430053CF0E9465
:100720009E4182E390E0EFE3FFE13197F1F700C0F3
:1007300000000197C1F7E0910020F0910120099598
:100740000E946A40C4E10E947C40C150E1F70E94CF
:100750009E41C7CF0E947C40803209F0B4CF809187
:10076000C10985FFFCCFF092C109B092C009809108
:10077000C10985FFFCCFF092C10981E48093C009D3
:100780008091C10985FFFCCFF092C109E6E5E093B5
:10079000C0098091C10985FFFCCFF092C109809208
:1007A000C0098091C10985FFFCCFF092C109F09288
:1007B000C0098091C10985FFFCCFF092C1099092D8
:1007C000C0098091C10985FFFCCFF092C109A092B8
:1007D000C0098091C10985FFFCCFF092C10980E575
:1007E0008093C0098091C10985FFFCCFF092C109B7
:1007F000E092C009C1E06FCF0E947C400E947C4023
:100800000E947C400E947C400E947C400E949E414D
:1008100068CF0E947C408638B8F70E949E4161CF25
:100820000E947C40803809F44AC1813809F44CC1E7
:10083000823809F44EC1883909F4C5C080E00E94AD
:100840006E41C1E048CF0E947C40809306200E9408
:100850007C408093072010920820109209200E946B
:100860009E41C1E038CF0E947C40803309F49AC198
:100870000E947C400E947C400E947C40DFCFC09060
:100880000620D0900720E894C7F8DD240E947C4021
:1008900080930E210E947C4080930D218091102135
:1008A0008E7F8093102180910D2190910E218138AF
:1008B000910520F020920D2130920E210E947C4063
:1008C000853409F42FC1C114D10409F051C08091BD
:1008D0000D2190910E21892B91F08601055F1F4D0E
:1008E000C0E0D0E00E947C40F80181938F01219606
:1008F00080910D2190910E21C817D90798F30E947D
:100900007C40803209F0DFCE8091102180FF5CC1F5
:1009100080910D2190910E21892BE9F0CBE0D0E25E
:1009200000E010E0699180910620909107200E94DC
:1009300050468091062090910720019680930620D2
:10094000909307200F5F1F4F80910D2190910E21F2
:100950000817190738F38091C10985FFFCCFF09281
:10096000C109B092C0098091C10985FFFCCF3ECF7B
:100970008091102180FDDCC02601612C712CCBE020
:10098000D0E29601255F3F4D40E050E0BA018091F2
:10099000062090910720A0910820B0910920841989
:1009A0009509A609B709840F951FA61FB71FABBFEE
:1009B000FC01879189934F5F5F4F6F4F7F4FC21745
:1009C000D30729F784CF83E00E946E41C1E083CE34
:1009D0000E947C4080930E210E947C4080930D21D8
:1009E00040900620509007200E947C40853409F4F6
:1009F000D3C0809110218E7F809310210E947C4073
:100A0000803209F067CE8091C10985FFFCCF612C4F
:100A1000712CF092C109B092C00980910D21909182
:100A20000E21892B09F4A6C0C0E0D0E080911021EE
:100A300080FF81C080910620909107200E94484647
:100A40009091C10995FFFCCFF092C1098093C00934
:100A50008091062090910720019680930620909324
:100A600007207FC00E947C40803209F02CCE80910C
:100A7000C10985FFFCCFF092C109B092C0098091F5
:100A8000C10985FFFCCFF092C1098EE18093C009B6
:100A90008091C10985FFFCCFF092C109E5E9E0939F
:100AA000C0098091C10985FFFCCFF092C109FCE427
:100AB000F093C0098091C10985FFFCCF97CE82E0F9
:100AC0000E946E41C1E007CE81E00E946E41C1E00C
:100AD00002CE80E10E946E41C1E0FDCD88ED84BF71
:100AE00081E08093400080914100882321F088EDCF
:100AF00084BF1092410080915000877C8093500009
:100B00004FEF5FEF8FEF03C0815009F4ECCD909170
:100B1000510092FFF9CFEBCDE0910020F091012040
:100B2000099552CD80911021816080931021CBCE08
:100B3000C12CD12CCCCE8091CF0187FDFCCF10925F
:100B4000CA016BBEF20197918091C10985FFFCCF6C
:100B5000F092C1099093C009FFEF4F1A5F0A6F0A24
:100B60007F0A219680910D2190910E21C817D907F7
:100B700008F45CCF8091102180FD04C040920620D3
:100B8000509207208091C10985FFFCCF2FCE4150A4
:100B9000510909F0B3CDBBCD8091102181608093C4
:100BA00010212CCF0E947C400E947C40C82F0E94C4
:100BB0007C40CC2309F467C0C13009F45FC08CE4E9
:100BC0000E946E41C1E087CD80910D2180FF09C058
:100BD00080910D2190910E21019680930D2190938B
:100BE0000E218091CF0187FDFCCF1092CA010E9497
:100BF000CF418091CF0187FDFCCF1092CA01609157
:100C00000D2170910E216C0D7D1D8BE090E20E94F4
:100C100005428091CF0187FDFCCF1092CA018091DF
:100C2000062090910720A0910820B0910920BC01D6
:100C3000CD016C197D09810991090E942D42809195
:100C4000CF0187FDFCCF1092CA0120910D21309178
:100C50000E218091062090910720A0910820B0914C
:100C60000920820F931FA11DB11D80930620909330
:100C70000720A0930820B09309206DCE85E90E943B
:100C80006E41C1E028CD8EE10E946E41C1E023CDCE
:100C900003D0808199270895FC01E050F04F08951A
:100CA000262FE0ECF1E0378537FDFDCF808391837F
:100CB0001282DC01A050B04F2C9325E3228728ED4F
:0E0CC00031E024BF338701960895F894FFCFEA
:040000030000800079
:00000001FF
